:020000040800F2
:100000005004002091130008191300081B13000866
:100010001D1300081F130008211300080000000032
:100020000000000000000000000000002313000892
:1000300025130008000000002713000829130008FA
:10004000AD130008B1130008B5130008B913000878
:10005000BD130008C1130008C5130008C913000828
:10006000CD130008D1130008D5130008D9130008D8
:10007000DD130008E1130008E5130008E913000888
:10008000ED130008F1130008F5130008000000004C
:10009000000000000000000000000000F91300084C
:1000A000FD130008011400080514000809140008D5
:1000B0002D1300080D140008111400081514000871
:1000C000191400081D140008211400082514000844
:1000D000291400082D140008311400080000000045
:1000E00035140008391400083D1400080000000011
:1000F00000000000000000000000000041140008A3
:100100000000000045140008491400084D140008C0
:1001100000000000000000000000000000000000DF
:100120005114000855140008591400085D14000803
:100130006114000800000000000000000000000042
:10014000000000000000000000000000651400082E
:10015000691400086D140008711400087514000873
:10016000791400087D140008000000000000000061
:10017000000000000000000000000000000000007F
:1001800000000000811400080000000000000000D2
:100190008514000802206870211D206800F07CF999
:1001A00001206870002032BD38B5040001D1012063
:1001B00032BD00F028F818B900F021F800F078FA04
:1001C000E8E710B500F023F801E000F024F800F0B3
:1001D00047FA2068DFF88010884205D1DFF87C10EC
:1001E0000A6842F400420A60816801F007010629AA
:1001F00003D0016841F001010160002010BD002121
:1002000029702046704704F13C0568787047044621
:100210000122206870470446080006D0042909D04E
:1002200008290CD00C290FD013E02068C26842F0D6
:1002300002020DE02068C26842F0040208E0206873
:10024000C26842F0080203E02068C26842F010026F
:10025000C260206801227047000001404400014054
:1002600010B50446206801698A0715D5C1688A0758
:1002700012D56FF00201016101222277806910F02E
:10028000030F204602D000F05BFA03E000F059FAB9
:1002900000F087F800202077206801694A0715D50B
:1002A000C1684A0712D56FF004010161022222776A
:1002B000806910F4407F204602D000F041FA03E04C
:1002C00000F03FFA00F06DF8002020772068016907
:1002D0000A0715D5C1680A0712D56FF00801016138
:1002E00004222277C06910F0030F204602D000F0EC
:1002F00027FA03E000F025FA00F053F800202077F9
:1003000020680169CA0615D5C168CA0612D56FF002
:100310001001016108222277C06910F4407F204655
:1003200002D000F00DFA03E000F00BFA00F039F80B
:100330000020207720680169CA0708D5C168CA076C
:1003400005D56FF001010161204600F0FBF920683E
:1003500001690A0608D5C1680A0605D56FF0800153
:100360000161204600F0EFF9206801694A0608D5CE
:10037000C1684A0605D56FF040010161204600F0D2
:10038000E3F9206801698A060AD5C1688A0607D59B
:100390006FF0200101612046BDE8104000F0D5B9A2
:1003A00010BD204600F0D2B970B500F063F801D15D
:1003B000022070BD00F06BF832B1042A17D0082A71
:1003C00028D00C2A39D04AE03068294600F0A1F83C
:1003D0003068816941F0080100F048F821F004011B
:1003E000816131688A69286902438A6137E030682F
:1003F000294600F0B3F83068816941F4006100F0EB
:1004000035F821F4806100F031F82A6941EA0221CF
:10041000816124E03068294600F0C9F83068C1697C
:1004200041F0080100F01EF821F00401C1613168BB
:10043000CA6928690243CA6111E03068294600F0A0
:10044000DEF83068C16941F4006100F00BF821F476
:10045000806100F007F82A6941EA0221C16100F0D9
:1004600010F870BDC1613068C16970478161306842
:1004700081697047064606F13C040D462078012844
:10048000704701206070002121700020704701201A
:100490002070022161707047F0B5694B0468694DA6
:1004A000694E6A4F984218BFB0F1804F04D0B842ED
:1004B0001CBFB042A8420CD14A6824F07004144317
:1004C000984218BFB0F1804F0ED0B84218BFB0426A
:1004D0000AD0A8421CBF5E4A904205D05D4DA8429A
:1004E0001CBF5D4A904203D1CA6824F4407414438F
:1004F0004A6924F080041443046098428C68C46202
:100500000A68826202D10969544A11600123436179
:10051000F0BD70B5026A520852000262066A446871
:1005200085690B688A6825F073051D4326F002066D
:100530001643434B98420BD1CA684B6926F0080614
:1005400024F4407416438A691C4326F004061443BD
:100550004460856149684163066270BD70B5026A96
:10056000374E22F010020262B042056A4368846985
:100570000A6824F4E64444EA02248A6825F0200547
:1005800045EA02150DD1CA684E6925F0800545EA95
:1005900002158A6923F44063164325F0400543EAB7
:1005A00086034360846149688163056270BD70B5EC
:1005B000026A22F480720262056A4368C4690A68AA
:1005C0008E6824F0730414431D4A25F4007590428C
:1005D00045EA06250DD1CA684E6925F4006545EA4D
:1005E00002258A6923F44053164325F4806543EAC3
:1005F00006134360C4614968C163056270BD70B58C
:10060000026A0F4E22F480520262B042046A4268CB
:10061000C3690D6823F4E64343EA05238D6824F497
:10062000005444EA053404D14D6922F4804242EA80
:1006300085124260C36149680164046270BD0000B4
:1006400000000140000C0040000800400004004091
:10065000004001400044014000480140300001409A
:1006600010B501F01F01036A01248C40A34303620B
:1006700002FA01F1036A1943016210BD81B0002042
:10068000009000222B48416841F48041416041685C
:1006900001F48041009100990092036843F0805377
:1006A0000360006800F080500090009801B070472F
:1006B0000068B0F1804F00D0704780B500211D4820
:1006C0000091026842F001020260002200F02CF862
:1006D0001C2000F057F8BDE802401C2000F06FB865
:1006E00010B586B004461422002101A800F092F84B
:1006F0002168B1F1804F15D10020009002220E48F0
:10070000016841F001010160202100F00DF80B4863
:10071000019102920021039104910121059101A907
:1007200000F082F806B010BD006800F001000090F3
:1007300000987047403802403038024000000240C4
:1007400070477047704770477047704770470000A8
:100750000901020002D4294881547047284B02F055
:100760000F021A4402F8041C7047264B19684FF612
:10077000FF020002114000F4E060084322490843F0
:100780001860704770B51F4B1C68C4F30223012426
:10079000C3F10705052D2EBF0F2504FA05F56D1EC3
:1007A0001E1D072E34BF0023DB1E2940994004FA8A
:1007B00003F3BDE870405B1E1A401143C8E7010017
:1007C00007D4012200F01F01104B8A40400943F872
:1007D0002020704710B5401EB0F1807F01D301206A
:1007E00010BD0B4C60600F214FF0FF30FFF7B0FFE2
:1007F0000021A16007202060002010BD00E400E07F
:1008000018ED00E00CED00E00000FA0500E100E06A
:1008100010E000E010B5044610460A4601462046A6
:1008200000F0DAF8204610BD2DE9F84F0D460026FD
:100830006149624A0F23044601202F68B04000EA54
:100840000708804540F0B2804FEA460C032707FABC
:100850000CF76FEA070E6F68012F18BF022F03D045
:10086000112F18BF122F12D1A768D5F80C900EEADD
:10087000070709FA0CF949EA0707A760676827EA3A
:1008800000006F68C7F30017B74038436060E06846
:10089000AF680EEA000007FA0CF73843E060B000DA
:1008A0006F68022F18BF122F12D1F70804EB8707C9
:1008B00000F01C09D7F820A003FA09FB2AEA0B0A6A
:1008C000D5F810B00BFA09F949EA0A09C7F82090DF
:1008D00027680EEA070E2F7907F0030707FA0CF7CF
:1008E00047EA0E0727606F68FF005FD50027009773
:1008F0004FEA960C176847F48047176000F00C0029
:10090000176807F48047009703FA00FE009F2C4FFA
:1009100057F82C7027EA0E0E2A4FBC4208BF00275A
:1009200013D0294FBC4208BF01270ED0274FBC422D
:1009300008BF022709D0264FBC4208BF032704D0B6
:10094000244FBC420CBF0427072707FA00F01C4FB6
:1009500040EA0E0047F82C006FEA08000F6800EA32
:10096000070C6F68FF0348BF48EA0C0CC1F800C0D1
:100970004F6800EA070C6F68BF0348BF48EA0C0CD9
:10098000C1F804C08F6800EA070C6F68FF0248BF17
:1009900048EA0C0CC1F808C0CF6800EA070C686888
:1009A000800248BF48EA0C0CC1F80CC0761C0F2E20
:1009B0007FF642AFBDE8F18F003C01404438024071
:1009C00008380140000002400004024000080240D4
:1009D000000C02400010024062F30F2262F31F423B
:1009E000401810F0030308D0C91A1FD3DB0748BF13
:1009F00000F8012D28BF20F8022D130030B4144652
:100A00001546103928BF20E93C00FAD8490728BF0D
:100A100020E90C0048BF40F8042D890028BF20F8C9
:100A2000022D48BF00F8012D30BC7047C91818BF0F
:100A300000F8012DCB0728BF00F8012D70470000FA
:100A40002DE9F843040016D02078DFF8F462C107DE
:100A500013D5B06800F00C00042807D0B06800F08F
:100A60000C0008283DD1706841023AD530688103F6
:100A700003D56068002800F05E812078B14F8107BF
:100A800019D5B06810F00C0F07D0B06800F00C005A
:100A900008285BD17068410258D43068810703D5BB
:100AA000E068012840F047813168206921F0F801B1
:100AB00041EAC00131602178080779D56069A2490F
:100AC000002868D001220A6000F042F90546706FE4
:100AD00081076DD400F03CF9401B0228F7D90320B0
:100AE0002CE16068B0F5803F04D1306840F480307C
:100AF000306011E0B0F5A02F306806D140F48020BE
:100B00003060316841F4803105E020F4803030609D
:100B1000316821F480213160606858B100F018F923
:100B2000054630688103A8D400F012F9401B6528FF
:100B3000F7D3D4E700F00CF90546306881039CD563
:100B400000F006F9401B6528F7D3C8E7E068A8B1B4
:100B50000121396000F0FCF805463068810705D4B2
:100B600000F0F6F8401B0228F7D9B8E73068216991
:100B700020F0F80040EAC10030609CE7386000F0E7
:100B8000E7F805463168880795D500F0E1F8401B85
:100B90000228F7D9A3E7086000F0DAF80546706F7D
:100BA000810705D500F0D4F8401B0228F7D996E755
:100BB000207841075FD5306C0025C1000AD400952C
:100BC0000125316C41F080513164306C00F080506F
:100BD00000900098DFF87481D8F80000C10513D4A4
:100BE000D8F8000040F48070C8F8000000F0B0F8B9
:100BF0008146D8F80000C10506D400F0A9F8A0EBA2
:100C000009000228F5D96AE7A068012805D005285F
:100C1000306F06D140F004003067306F40F00100C3
:100C200005E0400840003067306F20F00400306776
:100C300041F28938A06860B100F08AF88146306FCF
:100C4000810713D400F084F8A0EB09004045F6D3E7
:100C500045E700F07DF88146306F810706D500F04A
:100C600077F8A0EB09004045F6D338E71DB1306CAA
:100C700020F080503064A06900285ED0B16801F097
:100C80000C0108293AD002282AD10020386600F049
:100C90005FF805463068810105D500F059F8401B22
:100CA0000228F7D91BE7E069216A626A0843A16A52
:100CB000490840EA8210491E40EA0140E16A40EAE0
:100CC000016070600120386600F042F80446306828
:100CD000810132D400F03CF8001B0228F7D9FEE66F
:100CE0000020386600F034F804463068810124D5CD
:100CF00000F02EF8001B0228F7D9F0E601281AD0E0
:100D0000B068E26900F48001914202BF00F03F0147
:100D1000226A91420FD147F6C071626A0140914246
:100D200002BF00F44031A26A914202BF00F070603D
:100D3000E16A884201D0012000E00020BDE8F28392
:100D40000038024000004742800E474200700040D9
:100D500001484068704700BF000000202DE9F041C5
:100D600004000F4654D0404E306800F00F00B842E7
:100D700002D200F073F84BD120683C4D810712D5A8
:100D8000400703D5A96841F4E051A9602078010724
:100D900003D5A86840F46040A860A968A06821F065
:100DA000F0010143A9602178C80729D560680128AE
:100DB00002D129688A0305E0022818BF032803D15D
:100DC00029688A0103D423E029688A0720D5A96805
:100DD000890840EA8100A860FFF7BAFF8046A8684A
:100DE000616800F00C00B0EB810F09D0FFF7B0FF95
:100DF000A0EB080041F289318842F0D303202BE0B8
:100E0000306800F00F00874204D200F027F801D0CC
:100E1000012021E02078410705D5AA68E06822F486
:100E2000E0520243AA602178080706D5A968206924
:100E300021F4604141EAC001A96000F01FF8AA68EE
:100E40000B490C4BC2F30312895CC84018600A4876
:100E5000006800F043F80020BDE8F0813770316889
:100E600001F00F01B9427047003C024000380240D7
:100E7000AC1200080C0000200800002030B5144C13
:100E8000606800F00C00042802D0082802D01DE0A1
:100E9000104830BD226820680023410202F03F0262
:100EA00004D525680B49C5F3881003E020680A497A
:100EB000C0F38810A1FB000100F030F82168C1F3F5
:100EC0000141491C4900B0FBF1F030BD024830BD82
:100ED0000438024040787D010024F40038B50D4DFF
:100EE0000D4B2A7804464FF47A711868B1FBF2F280
:100EF000B0FBF2F0FFF76EFC50B9102C08D20022C4
:100F000021464FF0FF30FFF73DFCAC60002032BDC2
:100F1000012032BD000000200C000020D3BBD9B15D
:100F2000B2F5803F5BD2022A1ED98C46B1FBF2F1AA
:100F300002FB11C31B0443EA1043B3FBF2FC02FBA8
:100F40001C3380B240EA0343B3FBF2F002FB1032E1
:100F500040EA0C4000237047022A05D98446B0FBC2
:100F6000F2F002FB10C270474AB105D100F0010255
:100F700049085FEA3000704700220023704700F004
:100F800051B80B000200002100207047F7D3002267
:100F900000237047904271EB030CF2D370B5B1FAA5
:100FA00081F4B3FA83F52C1BA340C4F1200532FA77
:100FB00005F63343A2405FF00046E64002E05B08DE
:100FC0005FEA3202841A71EB030524BF20462946EA
:100FD0007641F4D302000B003000002170BD70B5E3
:100FE000B1FA81F4B2FA82F5C4F120046419B4F1C3
:100FF0002006DAD3B2405FF00044F440002502E05E
:1010000052085FEA3303C61A71EB020E24BF304662
:10101000714664416D41F3D302000B0020002900AA
:1010200070BD00007047000030B589B000F0AAF82C
:1010300000F050F80020009008224E484E4C016805
:1010400041F0010101600021006800F00100009002
:1010500000986846FFF7DEFB1C22002102A8FFF77C
:10106000D9FB4FF08040206018214FF47A700022A5
:10107000E0606160A2602261A2612046FFF794F8FF
:101080000021009101912046694600F095F8602109
:101090000291002203920492069202A92046FFF7D1
:1010A00083F92046FFF71CFB00212046FFF789F853
:1010B0000024642000F0BCF82CB1B4F57A7F03D191
:1010C0006FF0310500E032252C19A4B2204600F063
:1010D0003EF8EEE780B592B03022002106A8FFF777
:1010E00099FB1422002101A8FFF794FB0020009037
:1010F00001232248016841F080510160002100680D
:1011000000F08050009000981D480091026822F481
:10111000404242F4004202600222006800F4404073
:10112000009006A8009906921021002209930A91C6
:101130000C92FFF785FC0F20019000210291039192
:101140000491059101A8FFF709FE13B000BD18B581
:1011500087B06022009201900022029204926946B8
:10116000054C2046FFF720F900212046FFF729F81B
:1011700008B010BD30380240100000204038024056
:101180000070004080B50B48016841F400710160B7
:10119000026842F480620260016841F4807101607B
:1011A0000320FFF7E2FA0020FFF798FEFFF766FA48
:1011B000002002BD003C024070B500F13C031A78EB
:1011C000012A01D1022070BD01221A7002245C7034
:1011D00005686E68AC680A6826F0700616436E6093
:1011E00002680E48824218BFB2F1804F0BD00C4803
:1011F00082421CBF0B4DAA4205D00B4882421CBF45
:101200000A4DAA4204D1486824F080040443946043
:10121000012159700020187070BD000000000140CD
:101220000004004000080040000C00400040014065
:1012300038B50446FFF78CFD14F1010F054602D0C6
:10124000044801786418FFF783FD401BA042FAD3DD
:1012500031BD00BF0000002030B50168846842182D
:10126000416802EB5103C90703D54C4401E0491C16
:1012700005D19A420AD012F9011B12F8015B00292C
:1012800004F8015BF3D4491EF7D5F2E70C3030BD0A
:101290000448054A016841F4700101604FF00060A4
:1012A0001060704788ED00E008ED00E000000000ED
:1012B00000000000010203040607080910B50749F1
:1012C00079441831064C7C44163404E00A68081D41
:1012D000114488470146A142F8D110BD2C000000FE
:1012E000380000004EF68851CEF20001086840F444
:1012F00070000860BFF34F8FBFF36F8F4FF0007027
:10130000E1EE100A7047000051FFFFFF7C01000072
:101310001A000000000000207047FEE7FEE7FEE72D
:10132000FEE770477047704700F006B80148FEF7C7
:1013300097BF0000100000200248416802788A1818
:10134000426070470000002000F00DF8002801D036
:10135000FFF7B4FFAFF300800020AFF30080FFF78A
:1013600063FE00F002F80120704700F001B80000B1
:101370000746384600F002F8FBE7000080B5AFF3FF
:101380000080024A11001820ABBEFBE726000200D5
:10139000014880470148004791120008A113000846
:1013A000AFF30080FFF79EFFFFF7CEFFFFF7FEBF12
:1013B000FFF7FEBFFFF7FEBFFFF7FEBFFFF7FEBF61
:1013C000FFF7FEBFFFF7FEBFFFF7FEBFFFF7FEBF51
:1013D000FFF7FEBFFFF7FEBFFFF7FEBFFFF7FEBF41
:1013E000FFF7FEBFFFF7FEBFFFF7FEBFFFF7FEBF31
:1013F000FFF7FEBFFFF7FEBFFFF7FEBFFFF7FEBF21
:10140000FFF7FEBFFFF7FEBFFFF7FEBFFFF7FEBF10
:10141000FFF7FEBFFFF7FEBFFFF7FEBFFFF7FEBF00
:10142000FFF7FEBFFFF7FEBFFFF7FEBFFFF7FEBFF0
:10143000FFF7FEBFFFF7FEBFFFF7FEBFFFF7FEBFE0
:10144000FFF7FEBFFFF7FEBFFFF7FEBFFFF7FEBFD0
:10145000FFF7FEBFFFF7FEBFFFF7FEBFFFF7FEBFC0
:10146000FFF7FEBFFFF7FEBFFFF7FEBFFFF7FEBFB0
:10147000FFF7FEBFFFF7FEBFFFF7FEBFFFF7FEBFA0
:10148000FFF7FEBFFFF7FEBF0001F9000010FC00F0
:051490000124F4BF007F
:04000005080013A13B
:00000001FF
